346H002020120831
346 0020EQUITY DER BNVI  00000000000000000LS000000016000000500000F     
346 0020EQUITY DER CHMO  00000000000000000LS000000002000000075000F     
346 0020EQUITY DER       00000000000000000LS000000000000000010000F     
346 0020OPTIONS TRPXLK   20130119000210000LO000000150000000001498F     
346 0020OPTIONS TRCMNKD  20140118000050000SO000000370000000000275F     
346 0020OPTIONS TRCMNKD  20140118000070000LO000000200000000001480F     
346 0020OPTIONS TRCMNKD  20140118000025000SO000000870000000000242F     
346 0020OPTIONS TRCMNKD  20140118000030000SO000000710000000000050F     
346 0020OPTIONS TRPINTC  20130119000125000LO000000040000000001230F     
346 0020OPTIONS TRCMNKD  20130119000050000LO000000070000000000006F     
346 0020OPTIONS TR MNKDW 00000000000000000LS000000745000000010000F     
346 0020OPTIONS TR       00000000000000000SS000014240000000003000F     
346 0020OPTIONS TR INTC  00000000000000000LS000024830000000001500F     
346 0020OPTIONS TR MNKD  00000000000000000SS000002700000000007500F     
346 0020OPTIONS TR XLK   00000000000000000LS000030490000000003000F     
346 0020FACIL A BU DEI   00000000000000000SS000023990000000000747F     
346 0020FACIL D GI PLX   00000000000000000SS000005430000000000008F     
346 0020FACIL D GI CVH   00000000000000000LS000041630000000000033F     
346 0020FACIL D GI CRIS  00000000000000000LS000004400000000000291F     
346 0020FACIL D GI ARIA  00000000000000000LS000020560000000000200F     
346 0020FACIL D GI ARYX  00000000000000000LS000000008000000000100F     
346 0020FACIL D GI VNDA  00000000000000000LS000004390000000000007F     
346 0020FACIL D GI XOMA  00000000000000000LS000003470000000000100F     
346 0020FACIL R HU AAPL  00000000000000000LS000665240000000000020F     
346 0020FACIL R HU WDC   00000000000000000SS000041820000000000090F     
346 0020FACIL R HU QLIK  00000000000000000SS000021150000000000021F     
346 0020FACIL R HU INFA  00000000000000000SS000032600000000000030F     
346 0020FACIL R HU NUAN  00000000000000000LS000023850000000000058F     
346 0020OTC TRDG - ASTX  00000000000000000LS000002830000000000054F     
346 0020OTC TRDG-B AUTH  00000000000000000SS000008010000000004500F     
346 0020OTC TRDG-B CDNS  00000000000000000SS000013200000000000100F     
346 0020OTC TRDG-D GNOM  00000000000000000LS000003040000000000084F     
346 0020OTC TRDG-D SRPT  00000000000000000SS000015820000000000037F     
346 0020OTC TRDG-D       00000000000000000LS000000000000000000050F     
346 0020OTC TRDG-D FOLD  00000000000000000SS000004900000000000004F     
346 0020OTC TRDG-D BGMD  00000000000000000LS000003970000000000040F     
346 0020PROGRAM TR AKR   00000000000000000SS000024900000000000902F     
346 0020PROGRAM TR SSS   00000000000000000SS000056850000000000380F     
346 0020PROGRAM TR LTC   00000000000000000LS000033740000000000482F     
346 0020PROGRAM TR SNH   00000000000000000LS000022120000000000745F     
346 0020PROGRAM TR WY    00000000000000000SS000024910000000001160F     
346 0020PROGRAM TR NNN   00000000000000000SS000031060000000000757F     
346 0020PROGRAM TR CLP   00000000000000000LS000021920000000000796F     
346 0020PROGRAM TR PCH   00000000000000000SS000036060000000000811F     
346 0020PROGRAM TR IRC   00000000000000000LS000008200000000001342F     
346 0020PROGRAM TR IRET  00000000000000000SS000008350000000003104F     
346 0020PROGRAM TR RYN   00000000000000000SS000048990000000000498F     
346 0020PROGRAM TR RWT   00000000000000000SS000014330000000001956F     
346 0020PROGRAM TR HCP   00000000000000000SS000045860000000000529F     
346 0020PROGRAM TR HIW   00000000000000000LS000032610000000000224F     
346 0020PROGRAM TR HST   00000000000000000LS000015300000000000439F     
346 0020PROGRAM TR FRT   00000000000000000SS000107910000000000304F     
346 0020PROGRAM TR FSP   00000000000000000SS000011120000000002593F     
346 0020PROGRAM TR SHO   00000000000000000LS000010430000000001193F     
346 0020PROGRAM TR VNO   00000000000000000LS000081170000000000223F     
346 0020PROGRAM TR TCO   00000000000000000LS000080020000000000202F     
346 0020PROGRAM TR IWM   00000000000000000SS000081120000000000442F     
346 0020PROGRAM TR IYZ   00000000000000000SS000024100000000000862F     
346 0020PROGRAM TR HCBK  00000000000000000SS000007190000000003438F     
346 0020PROGRAM TR ERF   00000000000000000SS000015770000000001631F     
346 0020PROGRAM TR EQIX  00000000000000000SS000197650000000000176F     
346 0020PROGRAM TR SWX   00000000000000000LS000042750000000000391F     
346 0020PROGRAM TR AYI   00000000000000000SS000064160000000000474F     
346 0020PROGRAM TR SE    00000000000000000LS000028260000000000562F     
346 0020PROGRAM TR SPY   00000000000000000LS000141160000000008804F     
346 0020PROGRAM TR SPW   00000000000000000LS000063900000000000174F     
346 0020PROGRAM TR KRE   00000000000000000LS000027790000000000668F     
346 0020PROGRAM TR ITB   00000000000000000SS000018170000000001144F     
346 0020PROGRAM TR MAS   00000000000000000LS000014160000000001010F     
346 0020PROGRAM TR MHP   00000000000000000SS000051200000000000404F     
346 0020PROGRAM TR MWV   00000000000000000LS000028760000000000577F     
346 0020PROGRAM TR MDT   00000000000000000SS000040660000000000556F     
346 0020PROGRAM TR XRT   00000000000000000LS000061220000000000254F     
346 0020PROGRAM TR XOP   00000000000000000LS000052740000000000238F     
346 0020PROGRAM TR XME   00000000000000000LS000040940000000000795F     
346 0020PROGRAM TR SAP   00000000000000000LS000065660000000000286F     
346 0020PROGRAM TR SSL   00000000000000000LS000043320000000000264F     
346 0020PROGRAM TR KBR   00000000000000000LS000027090000000000323F     
346 0020PROGRAM TR KALU  00000000000000000SS000055850000000000591F     
346 0020PROGRAM TR KBH   00000000000000000SS000011040000000002402F     
346 0020PROGRAM TR KEG   00000000000000000LS000007910000000000928F     
346 0020PROGRAM TR PHG   00000000000000000SS000022870000000001008F     
346 0020PROGRAM TR XLE   00000000000000000SS000071530000000000382F     
346 0020PROGRAM TR XLF   00000000000000000LS000015160000000001091F     
346 0020PROGRAM TR XLI   00000000000000000LS000036360000000000330F     
346 0020PROGRAM TR XLK   00000000000000000LS000030490000000000290F     
346 0020PROGRAM TR SMTC  00000000000000000LS000024520000000000574F     
346 0020PROGRAM TR TRMK  00000000000000000LS000023690000000000449F     
346 0020PROGRAM TR UNS   00000000000000000SS000040060000000000610F     
346 0020PROGRAM TR UL    00000000000000000SS000035880000000000780F     
346 0020PROGRAM TR UNT   00000000000000000LS000039780000000000417F     
346 0020PROGRAM TR X     00000000000000000LS000019450000000000825F     
346 0020PROGRAM TR UFPI  00000000000000000LS000038430000000000100F     
346 0020PROGRAM TR VALE  00000000000000000LS000016370000000001073F     
346 0020PROGRAM TR VLY   00000000000000000LS000009700000000001521F     
346 0020PROGRAM TR VVC   00000000000000000LS000028210000000000548F     
346 0020PROGRAM TR WEC   00000000000000000LS000037960000000000396F     
346 0020PROGRAM TR DJP   00000000000000000SS000043530000000000608F     
346 0020PROGRAM TR ABX   00000000000000000SS000038520000000000527F     
346 0020PROGRAM TR NDSN  00000000000000000SS000058810000000000554F     
346 0020PROGRAM TR NWN   00000000000000000SS000049170000000000490F     
346 0020PROGRAM TR OXY   00000000000000000LS000085010000000000207F     
346 0020PROGRAM TR ONNN  00000000000000000LS000006230000000001146F     
346 0020PROGRAM TR ORCL  00000000000000000SS000031650000000000679F     
346 0020PROGRAM TR BCF   00000000000000000SS000010890000000002091F     
346 0020PROGRAM TR CBT   00000000000000000LS000034830000000000182F     
346 0020PROGRAM TR CM    00000000000000000SS000077340000000000327F     
346 0020PROGRAM TR CNI   00000000000000000SS000091540000000000329F     
346 0020PROGRAM TR CNQ   00000000000000000SS000030400000000000745F     
346 0020PROGRAM TR OIS   00000000000000000SS000078240000000000385F     
346 0020PROGRAM TR OI    00000000000000000LS000017480000000000688F     
346 0020PROGRAM TR MOLX  00000000000000000SS000026550000000001034F     
346 0020PROGRAM TR MOS   00000000000000000SS000057910000000000397F     
346 0020PROGRAM TR MUR   00000000000000000LS000051330000000000264F     
346 0020PROGRAM TR NRG   00000000000000000SS000021340000000001082F     
346 0020PROGRAM TR NOV   00000000000000000SS000078800000000000373F     
346 0020PROGRAM TR NPBC  00000000000000000LS000008900000000001549F     
346 0020PROGRAM TR NFX   00000000000000000SS000032630000000000749F     
346 0020PROGRAM TR NWS   00000000000000000SS000023550000000000932F     
346 0020PROGRAM TR ATW   00000000000000000SS000046280000000000443F     
346 0020PROGRAM TR ADP   00000000000000000SS000058080000000000415F     
346 0020PROGRAM TR AVY   00000000000000000SS000031230000000000695F     
346 0020PROGRAM TR BHI   00000000000000000SS000045600000000000804F     
346 0020PROGRAM TR DOV   00000000000000000SS000057810000000000457F     
346 0020PROGRAM TR DD    00000000000000000LS000049750000000000296F     
346 0020PROGRAM TR EMN   00000000000000000SS000055260000000000531F     
346 0020PROGRAM TR EIX   00000000000000000LS000043790000000000443F     
346 0020PROGRAM TR EXP   00000000000000000SS000042650000000000500F     
346 0020PROGRAM TR EMR   00000000000000000SS000050720000000000429F     
346 0020PROGRAM TR EGN   00000000000000000SS000051050000000000464F     
346 0020PROGRAM TR PCAR  00000000000000000LS000039910000000000239F     
346 0020PROGRAM TR PAAS  00000000000000000LS000017600000000001018F     
346 0020PROGRAM TR PKE   00000000000000000LS000025980000000000555F     
346 0020PROGRAM TR PGH   00000000000000000LS000006770000000002023F     
346 0020PROGRAM TR XEC   00000000000000000LS000057210000000000167F     
346 0020PROGRAM TR CDE   00000000000000000SS000022990000000001035F     
346 0020PROGRAM TR ELP   00000000000000000LS000017790000000000466F     
346 0020PROGRAM TR BVN   00000000000000000LS000034660000000000604F     
346 0020PROGRAM TR PQ    00000000000000000SS000006370000000001127F     
346 0020PROGRAM TR PXD   00000000000000000SS000097360000000000306F     
346 0020PROGRAM TR POT   00000000000000000LS000041070000000000417F     
346 0020PROGRAM TR QQQ   00000000000000000LS000068160000000000071F     
346 0020PROGRAM TR DBC   00000000000000000SS000028790000000000728F     
346 0020PROGRAM TR IEX   00000000000000000LS000039860000000000271F     
346 0020PROGRAM TR ING   00000000000000000SS000007580000000001146F     
346 0020PROGRAM TR IGD   00000000000000000SS000009260000000002294F     
346 0020PROGRAM TR SI    00000000000000000SS000094280000000000305F     
346 0020PROGRAM TR SLW   00000000000000000SS000034600000000000382F     
346 0020PROGRAM TR AOS   00000000000000000SS000054710000000000573F     
346 0020PROGRAM TR SNA   00000000000000000SS000069420000000000420F     
346 0020PROGRAM TR TROW  00000000000000000LS000061440000000000318F     
346 0020PROGRAM TR PRGS  00000000000000000LS000019230000000000619F     
346 0020PROGRAM TR INTC  00000000000000000LS000024830000000000405F     
346 0020PROGRAM TR IRF   00000000000000000LS000017410000000000247F     
346 0020PROGRAM TR EWC   00000000000000000SS000027500000000000779F     
346 0020PROGRAM TR EPP   00000000000000000SS000043380000000000656F     
346 0020PROGRAM TR RBN   00000000000000000SS000059820000000000406F     
346 0020PROGRAM TR ROK   00000000000000000LS000072060000000000217F     
346 0020PROGRAM TR RY    00000000000000000SS000056010000000000516F     
346 0020PROGRAM TR DVN   00000000000000000LS000057830000000000328F     
346 0020PROGRAM TR PL    00000000000000000LS000028250000000000634F     
346 0020PROGRAM TR RTI   00000000000000000LS000021690000000000309F     
346 0020PROGRAM TR RS    00000000000000000LS000051430000000000141F     
346 0020PROGRAM TR EWQ   00000000000000000SS000020610000000001224F     
346 0020PROGRAM TR EWG   00000000000000000SS000021220000000001304F     
346 0020PROGRAM TR EWW   00000000000000000LS000061380000000000159F     
346 0020PROGRAM TR EWJ   00000000000000000LS000009060000000002027F     
346 0020PROGRAM TR FXI   00000000000000000LS000033070000000000341F     
346 0020PROGRAM TR EEM   00000000000000000SS000039280000000000294F     
346 0020PROGRAM TR GPOR  00000000000000000SS000026300000000000910F     
346 0020PROGRAM TR HNI   00000000000000000SS000027720000000000903F     
346 0020PROGRAM TR HMY   00000000000000000LS000008540000000001030F     
346 0020PROGRAM TR HP    00000000000000000LS000045640000000000283F     
346 0020PROGRAM TR JKHY  00000000000000000SS000036960000000000625F     
346 0020PROGRAM TR HES   00000000000000000SS000050530000000000625F     
346 0020PROGRAM TR HITT  00000000000000000SS000052370000000000575F     
346 0020PROGRAM TR FTI   00000000000000000SS000046840000000000662F     
346 0020PROGRAM TR FDX   00000000000000000LS000087630000000000180F     
346 0020PROGRAM TR FLS   00000000000000000SS000127660000000000256F     
346 0020PROGRAM TR BEN   00000000000000000SS000117400000000000285F     
346 0020PROGRAM TR GWR   00000000000000000SS000063560000000000373F     
346 0020PROGRAM TR ALB   00000000000000000LS000054730000000000340F     
346 0020PROGRAM TR ATI   00000000000000000LS000029640000000000543F     
346 0020PROGRAM TR ALTR  00000000000000000SS000037330000000000697F     
346 0020PROGRAM TR AEP   00000000000000000SS000042990000000000481F     
346 0020PROGRAM TR LEG   00000000000000000SS000023740000000000983F     
346 0020PROGRAM TR LUK   00000000000000000LS000021380000000001442F     
346 0020PROGRAM TR LECO  00000000000000000LS000041250000000000327F     
346 0020PROGRAM TR LUFK  00000000000000000LS000052420000000000191F     
346 0020PROGRAM TR MDU   00000000000000000LS000021550000000000836F     
346 0020PROGRAM TR SGY   00000000000000000LS000023530000000000610F     
346 0020PROGRAM TR SYK   00000000000000000LS000053260000000000323F     
346 0020PROGRAM TR SU    00000000000000000LS000031280000000000542F     
346 0020PROGRAM TR SFY   00000000000000000LS000019490000000000801F     
346 0020PROGRAM TR GT    00000000000000000SS000012200000000002213F     
346 0020PROGRAM TR GGG   00000000000000000LS000049400000000000216F     
346 0020PROGRAM TR GTI   00000000000000000LS000009370000000000327F     
346 0020PROGRAM TR GLF   00000000000000000LS000035080000000000552F     
346 0020PROGRAM TR AU    00000000000000000LS000031900000000000876F     
346 0020PROGRAM TR ANSS  00000000000000000SS000069700000000000420F     
346 0020PROGRAM TR AIT   00000000000000000SS000040680000000000524F     
346 0020PROGRAM TR AMAT  00000000000000000SS000011690000000002798F     
346 0020PROGRAM TR MT    00000000000000000LS000014700000000000927F     
346 0020PROGRAM TR ESV   00000000000000000SS000057370000000000480F     
346 0020PROGRAM TR WFT   00000000000000000LS000011760000000000703F     
346 0020PROGRAM TR FWLT  00000000000000000SS000021900000000001101F     
346 0020PROGRAM TR AFL   00000000000000000SS000046180000000000719F     
346 0020PROGRAM TR JPM   00000000000000000LS000037140000000000309F     
346 0020PROGRAM TR WDR   00000000000000000LS000029600000000000242F     
346 0020PROGRAM TR WFC   00000000000000000LS000034030000000000515F     
346 0020PROGRAM TR TE    00000000000000000LS000017360000000001099F     
346 0020PROGRAM TR TLM   00000000000000000SS000013940000000002370F     
346 0020PROGRAM TR TCK   00000000000000000LS000027700000000000595F     
346 0020PROGRAM TR TS    00000000000000000SS000041710000000000490F     
346 0020PROGRAM TR TEX   00000000000000000SS000022070000000001490F     
346 0020PROGRAM TR TTI   00000000000000000LS000006410000000000972F     
346 0020PROGRAM TR TCBI  00000000000000000SS000046020000000000493F     
346 0020PROGRAM TR TDW   00000000000000000LS000047430000000000390F     
346 0020PROGRAM TR TWX   00000000000000000SS000041550000000000828F     
346 0020PROGRAM TR WYN   00000000000000000LS000052140000000000207F     
346 0020PROGRAM TR AUY   00000000000000000SS000017130000000001874F     
346 0020NON MRK MK KVPBQ 00000000000000000LS000000130000000000100F     
346 0020NON MRK MK LPR   00000000000000000LS000001300000000000100F     
346 0020NON MRK MK MM    00000000000000000SS000011530000000000054F     
346 0020NON MRK MK CCGM  00000000000000000SS000000012000000000100F     
346 0020NON MRK MK TNCC  00000000000000000LS000000010000000000100F     
346 0020OPTIONS TR ARP   00000000000000000LS000024520000000000059F     
346 0020OPTIONS TRCOCR   20120922000330000LO000000500000000000410F     
346 0020OPTIONS TRPOCR   20120922000310000SO000000450000000000116F     
346 0020OPTIONS TRCOCR   20120922000320000LO000000900000000000526F     
346 0020OPTIONS TRCUTHR  20130216000650000LO000001550000000000004F     
346 0020OPTIONS TRCLLY   20120922000490000SO000000010000000000100F     
346 0020OPTIONS TRCLLY   20120922000450000LO000000630000000000200F     
346 0020OPTIONS TRCLLY   20120922000460000SO000000240000000000590F     
346 0020OPTIONS TRCLLY   20120922000500000SO000000030000000000200F     
346 0020OPTIONS TRCELN   20120922000120000LO000000200000000000350F     
346 0020OPTIONS TRCELN   20120922000140000SO000000050000000000015F     
346 0020OPTIONS TRCSHPG  20130119000900000LO000006700000000000489F     
346 0020OPTIONS TRCAOL   20120922000330000SO000001200000000000100F     
346 0020OPTIONS TRCARNA  20120922000110000SO000000080000000000034F     
346 0020OPTIONS TRPBSX   20120922000050000SO000000030000000000200F     
346 0020OPTIONS TRCBSX   20120922000050000SO000000460000000000200F     
346 0020OPTIONS TRPCOO   20120922000750000SO000000550000000000088F     
346 0020OPTIONS TRCAKRX  20120922000150000SO000000150000000000032F     
346 0020OPTIONS TRPAKRX  20120922000150000LO000001550000000000500F     
346 0020OPTIONS TRCPFE   20121020000230000LO000001130000000000132F     
346 0020OPTIONS TRCARNA  20121020000090000SO000000880000000000256F     
346 0020OPTIONS TRCARNA  20121020000100000SO000000520000000000600F     
346 0020OPTIONS TRCARNA  20121020000110000LO000000310000000001230F     
346 0020OPTIONS TRCARNA  20121020000120000SO000000220000000000300F     
346 0020OPTIONS TRCDVAX  20130119000050000LO000000550000000000532F     
346 0020OPTIONS TRCARNA  20121020000150000SO000000090000000000020F     
346 0020OPTIONS TRCARNA  20121020000160000SO000000070000000000100F     
346 0020OPTIONS TRCCX    20130119000138700LO000000040000000000144F     
346 0020OPTIONS TRCCSCO  20130119000175000000002170SO000000001500F     
346 0020OPTIONS TRPCSCO  20130119000175000LO000000780000000001500F     
346 0020OPTIONS TRCLLY   20121020000450000LO000001440000000000100F     
346 0020OPTIONS TRCLLY   20121020000440000LO000001970000000000050F     
346 0020OPTIONS TRCPTIE  20121020000050000SO000000250000000000227F     
346 0020OPTIONS TRCVRX   20121020000500000LO000003780000000000487F     
346 0020OPTIONS TRCLLY   20121020000500000SO000000130000000000300F     
346 0020OPTIONS TRCLLY   20121020000480000SO000000360000000000015F     
346 0020OPTIONS TRPVRTX  20121020000550000LO000005100000000000020F     
346 0020OPTIONS TRCATHN  20120922000950000SO000000700000000000015F     
346 0020OPTIONS TRCVVUS  20120922000320000SO000000090000000000050F     
346 0020OPTIONS TRCVVUS  20120922000340000LO000000050000000000050F     
346 0020OPTIONS TRCVVUS  20120922000390000SO000000010000000000045F     
346 0020OPTIONS TRCNVO   20120922001600000LO000001100000000000150F     
346 0020OPTIONS TRPARNA  20121020000020000LO000000010000000000250F     
346 0020OPTIONS TRPARNA  20121020000015000SO000000020000000000822F     
346 0020OPTIONS TRPARNA  20121020000040000SO000000020000000000100F     
346 0020OPTIONS TRPDVAX  20121020000025000LO000000100000000000039F     
346 0020OPTIONS TRCDVAX  20121020000025000LO000001400000000000100F     
346 0020OPTIONS TRCDVAX  20121020000050000SO000000100000000000965F     
346 0020OPTIONS TRCELN   20121020000160000SO000000050000000000027F     
346 0020OPTIONS TRPELN   20121020000130000SO000001700000000000027F     
346 0020OPTIONS TRPARNA  20130119000020000LO000000020000000000050F     
346 0020OPTIONS TRPSGEN  20120922000225000SO000000150000000000050F     
346 0020OPTIONS TRCSGEN  20120922000250000LO000002050000000000400F     
346 0020OPTIONS TRCSGEN  20120922000300000SO000000200000000000410F     
346 0020OPTIONS TRCTEVA  20120922000400000LO000000460000000000125F     
346 0020OPTIONS TRCTEVA  20120922000450000LO000000020000000000250F     
346 0020OPTIONS TRPTEVA  20120922000350000LO000000030000000000100F     
346 0020OPTIONS TRCTHRX  20120922000300000LO000000450000000000013F     
346 0020OPTIONS TRCVIAB  20120922000470000SO000003100000000000050F     
346 0020OPTIONS TRPCOO   20120922000800000LO000001250000000000100F     
346 0020OPTIONS TRCESRX  20120922000625000SO000001330000000000015F     
346 0020OPTIONS TRCHSH   20120922000260000SO000000650000000000100F     
346 0020OPTIONS TRCPRGO  20120922001150000LO000000400000000000724F     
346 0020OPTIONS TRCUTHR  20120922000600000SO000000100000000000004F     
346 0020OPTIONS TRCVRX   20120922000525000SO000001250000000000150F     
346 0020OPTIONS TRCVRX   20120922000500000SO000002750000000000030F     
346 0020OPTIONS TRPVRX   20120922000490000SO000001150000000000150F     
346 0020OPTIONS TRCVIAB  20120922000480000LO000002200000000000235F     
346 0020OPTIONS TRPVVUS  20120922000200000LO000000500000000000200F     
346 0020OPTIONS TRPTEVA  20120922000325000SO000000040000000000250F     
346 0020OPTIONS TRCVVUS  20120922000220000LO000000850000000000200F     
346 0020OPTIONS TRPVVUS  20120922000210000SO000000860000000000100F     
346 0020OPTIONS TRCVVUS  20120922000210000SO000001350000000000100F     
346 0020OPTIONS TRPJNJ   20130119000600000LO000000360000000000875F     
346 0020OPTIONS TRCLLY   20130119000500000SO000000410000000000200F     
346 0020OPTIONS TRCLLY   20130119000450000LO000002040000000001789F     
346 0020OPTIONS TRPJNJ   20130119000575000SO000000220000000000350F     
346 0020OPTIONS TRCMDT   20130119000300000SO000010700000000000155F     
346 0020OPTIONS TRCMDT   20130119000350000LO000006050000000000200F     
346 0020OPTIONS TRCMNKD  20130119000050000LO000000070000000000855F     
346 0020OPTIONS TRCCNQ   20130119000600000SO000000050000000000100F     
346 0020OPTIONS TRPXLV   20130119000350000SO000000590000000000200F     
346 0020OPTIONS TRCPFE   20120922000240000SO000000280000000001200F     
346 0020OPTIONS TRPPFE   20120922000230000LO000000110000000000300F     
346 0020OPTIONS TRCPFE   20120922000250000LO000000040000000001200F     
346 0020OPTIONS TRCNVO   20120922001550000SO000004000000000000221F     
346 0020OPTIONS TRPBAX   20121117000475000SO000000220000000000142F     
346 0020OPTIONS TRPBSX   20121117000050000LO000000150000000000800F     
346 0020OPTIONS TRCBSX   20121117000050000LO000000570000000000450F     
346 0020OPTIONS TRCAOL   20121020000340000SO000001100000000000100F     
346 0020OPTIONS TRCAOL   20121020000330000LO000001800000000000470F     
346 0020OPTIONS TRCLLY   20130119000460000SO000001620000000000200F     
346 0020OPTIONS TRCK     20121222000475000LO000003800000000000329F     
346 0020OPTIONS TRPNVO   20121222001550000SO000006900000000000030F     
346 0020OPTIONS TRPINCY  20120922000175000LO000000050000000000813F     
346 0020OPTIONS TRPINCY  20120922000200000SO000000750000000000020F     
346 0020OPTIONS TRCINCY  20120922000175000LO000002850000000000948F     
346 0020OPTIONS TRCINCY  20120922000200000SO000000750000000000225F     
346 0020OPTIONS TRCLEA   20120922000350000LO000004000000000000050F     
346 0020OPTIONS TRCLEA   20120922000400000SO000000550000000000357F     
346 0020OPTIONS TRCLEA   20120922000450000LO000000050000000000050F     
346 0020OPTIONS TRPLEA   20120922000400000LO000001750000000000030F     
346 0020OPTIONS TRCACHN  20120922000100000LO000000050000000000080F     
346 0020OPTIONS TRCVIAB  20121222000525000LO000001300000000000100F     
346 0020OPTIONS TRCVRTX  20121020000750000SO000000200000000000020F     
346 0020OPTIONS TRCMYL   20140118000300000SO000001180000000000700F     
346 0020OPTIONS TRPMYL   20140118000150000LO000000650000000000700F     
346 0020OPTIONS TRCARNA  20121020000170000SO000000060000000000100F     
346 0020OPTIONS TRPATHN  20120922000700000SO000000350000000000045F     
346 0020OPTIONS TRPATHN  20120922000750000SO000000450000000000050F     
346 0020OPTIONS TRPATHN  20120922000800000SO000000800000000000040F     
346 0020OPTIONS TRCATHN  20120922000800000SO000008740000000000016F     
346 0020OPTIONS TRCATHN  20120922000850000LO000004800000000000365F     
346 0020OPTIONS TRPGMCR  20130119000700000LO000045750000000000500F     
346 0020OPTIONS TRCNVO   20121222001600000SO000006400000000000010F     
346 0020OPTIONS TRCNVO   20121222001650000LO000004700000000000250F     
346 0020OPTIONS TRCVIAB  20121222000500000LO000002410000000000007F     
346 0020OPTIONS TRPCPTS  20121117000150000SO000000300000000000010F     
346 0020OPTIONS TRC      20120922000110000LO000006300000000000150F     
346 0020OPTIONS TRCWCRX  20120922000110000SO000002750000000000150F     
346 0020OPTIONS TRPPRGO  20121117001100000SO000004600000000000075F     
346 0020OPTIONS TRCPRGO  20121117001150000SO000002600000000000100F     
346 0020OPTIONS TRCPRGO  20121117001200000LO000001500000000000500F     
346 0020OPTIONS TRCPRGO  20121117001300000SO000000400000000000005F     
346 0020OPTIONS TRPARNA  20121020000070000LO000000190000000000150F     
346 0020OPTIONS TRPBAX   20121117000525000SO000000550000000000150F     
346 0020OPTIONS TRPBAX   20121117000500000LO000000330000000000324F     
346 0020OPTIONS TR LEA   00000000000000000LS000038830000000008400F     
346 0020OPTIONS TR       00000000000000000LS000000000000000007500F     
346 0020OPTIONS TR LLY   00000000000000000SS000044910000000076800F     
346 0020OPTIONS TR MDT   00000000000000000SS000040660000000000500F     
346 0020OPTIONS TR ARNA  00000000000000000LS000009040000000013200F     
346 0020OPTIONS TR ATHN  00000000000000000SS000088370000000025000F     
346 0020OPTIONS TR BAX   00000000000000000LS000058680000000000300F     
346 0020OPTIONS TR GILD  00000000000000000SS000057690000000000252F     
346 0020OPTIONS TR GMCR  00000000000000000LS000024310000000049500F     
346 0020OPTIONS TR HSH   00000000000000000LS000026070000000004200F     
346 0020OPTIONS TR INCY  00000000000000000SS000020010000000070100F     
346 0020OPTIONS TR CPRX  00000000000000000SS000001500000000068500F     
346 0020OPTIONS TR MYL   00000000000000000LS000023570000000028000F     
346 0020OPTIONS TR NVO   00000000000000000SS000157110000000000800F     
346 0020OPTIONS TR OCR   00000000000000000SS000032380000000050100F     
346 0020OPTIONS TR PTIE  00000000000000000LS000003980000000010000F     
346 0020OPTIONS TR PRGO  00000000000000000SS000109970000000020900F     
346 0020OPTIONS TR PFE   00000000000000000LS000023860000000036800F     
346 0020OPTIONS TR JNJ   00000000000000000LS000067430000000007450F     
346 0020OPTIONS TR K     00000000000000000SS000050650000000025600F     
346 0020OPTIONS TR TEVA  00000000000000000SS000039580000000005800F     
346 0020OPTIONS TR VRX   00000000000000000SS000051270000000025500F     
346 0020OPTIONS TR VRTX  00000000000000000LS000053330000000001300F     
346 0020OPTIONS TR VIAB  00000000000000000SS000050010000000018300F     
346 0020OPTIONS TR VVUS  00000000000000000SS000021450000000002000F     
346 0020OPTIONS TR AOL   00000000000000000SS000033670000000017500F     
346 0020OPTIONS TR ACHN  00000000000000000LS000007030000000017000F     
346 0020OPTIONS TR AKRX  00000000000000000LS000013840000000041500F     
346 0020OPTIONS TR CSCO  00000000000000000LS000019080000000153000F     
346 0020OPTIONS TR COO   00000000000000000LS000083850000000002000F     
346 0020OPTIONS TR DVAX  00000000000000000SS000003910000000012000F     
346 0020OPTIONS TR ELN   00000000000000000SS000011360000000001000F     
346 0020OPTIONS TR ESRX  00000000000000000LS000062620000000000600F     
346 0020OPTIONS TR SGEN  00000000000000000SS000026540000000023000F     
346 0020OPTIONS TR XLV   00000000000000000SS000038840000000004500F     
346 0020OPTIONS TR SHPG  00000000000000000SS000090540000000026933F     
346 0020OPTIONS TR ATLS  00000000000000000SS000034060000000030843F     
346 0020OPTIONS TRCIPG   20121020000110000LO000000400000000003779F     
346 0020OPTIONS TRCIPG   20121020000120000SO000000250000000000450F     
346 0020OPTIONS TRCEMN   20121020000550000LO000002150000000000099F     
346 0020OPTIONS TRPHTZ   20121020000160000LO000002050000000001250F     
346 0020OPTIONS TRCROC   20121020000450000LO000003700000000000151F     
346 0020OPTIONS TRCPKG   20121020000300000LO000002300000000000575F     
346 0020OPTIONS TRCTAP   20121020000400000LO000004900000000002000F     
346 0020OPTIONS TRPTAP   20121020000350000SO000000050000000002000F     
346 0020OPTIONS TRCVAL   20121020000500000LO000003700000000000009F     
346 0020OPTIONS TRPCOG   20121020000220000LO000000050000000001000F     
346 0020OPTIONS TRCATLS  20121020000310000LO000003400000000000400F     
346 0020OPTIONS TRCBLL   20121117000410000LO000002250000000000400F     
346 0020OPTIONS TRCBLL   20121117000430000LO000001100000000000276F     
346 0020OPTIONS TRCBWC   20121117000250000SO000001400000000000300F     
346 0020OPTIONS TRCCCK   20121020000350000LO000001850000000000238F     
346 0020OPTIONS TRCCOG   20121020000400000SO000003300000000000500F     
346 0020OPTIONS TRCETN   20121020000350000LO000010200000000000116F     
346 0020OPTIONS TRCEXC   20121020000390000LO000000100000000001250F     
346 0020OPTIONS TRCTSLA  20120922000300000SO000000750000000000150F     
346 0020OPTIONS TRCEMN   20120922000525000LO000003000000000000241F     
346 0020OPTIONS TRCIPG   20120922000100000LO000000700000000000700F     
346 0020OPTIONS TRCIPG   20120922000120000SO000000050000000000690F     
346 0020OPTIONS TRCIPG   20120922000130000SO000000100000000000100F     
346 0020OPTIONS TRCIPG   20120922000110000SO000000250000000000250F     
346 0020OPTIONS TRCROC   20120922000450000LO000002800000000000077F     
346 0020OPTIONS TRPTAP   20120922000350000SO000000050000000000950F     
346 0020OPTIONS TRCSHAW  20120922000390000LO000003000000000000200F     
346 0020OPTIONS TRCEMN   20121222000550000LO000003750000000000700F     
346 0020OPTIONS TRCGEO   20121222000250000SO000002200000000000200F     
346 0020OPTIONS TRCHTZ   20121222000130000SO000002200000000000500F     
346 0020OPTIONS TRCILMN  20121222000500000LO000001350000000000031F     
346 0020OPTIONS TRCDTG   20130119000900000LO000000050000000000454F     
346 0020OPTIONS TRPARBA  20121117000450000LO000000450000000000450F     
346 0020OPTIONS TRCARBA  20121117000450000LO000000050000000000450F     
346 0020OPTIONS TRCFMC   20121020000525000LO000002850000000000838F     
346 0020OPTIONS TRCFMC   20121020000550000LO000001500000000000280F     
346 0020OPTIONS TRPCVI   20120922000275000LO000000150000000000120F     
346 0020OPTIONS TRCDRC   20120922000450000LO000005750000000000603F     
346 0020OPTIONS TRCDRC   20120922000500000SO000001600000000000560F     
346 0020OPTIONS TRCEMN   20120922000500000SO000005450000000000117F     
346 0020OPTIONS TRCGRA   20120922000600000LO000000750000000000214F     
346 0020OPTIONS TRCKRE   20120922000290000SO000000100000000000262F     
346 0020OPTIONS TRCAGP   20130119000850000LO000006700000000000052F     
346 0020OPTIONS TRCGNW   20130119000125000LO000000040000000000350F     
346 0020OPTIONS TRPILMN  20130119000350000LO000001350000000000100F     
346 0020OPTIONS TRCILMN  20130119000500000SO000001300000000000840F     
346 0020OPTIONS TR COG   00000000000000000LS000041410000000030300F     
346 0020OPTIONS TR CCK   00000000000000000SS000036250000000016300F     
346 0020OPTIONS TR DRC   00000000000000000SS000050620000000025617F     
346 0020OPTIONS TR ROC   00000000000000000SS000047340000000015809F     
346 0020OPTIONS TR KRE   00000000000000000LS000027790000000003900F     
346 0020OPTIONS TR SHAW  00000000000000000SS000042080000000017300F     
346 0020OPTIONS TR AGP   00000000000000000SS000090920000000001000F     
346 0020OPTIONS TR       00000000000000000SS000030980000000024826F     
346 0020OPTIONS TR ARBA  00000000000000000LS000044690000000041500F     
346 0020OPTIONS TR BWC   00000000000000000LS000024670000000015000F     
346 0020OPTIONS TR BLL   00000000000000000SS000042170000000037408F     
346 0020OPTIONS TR CVI   00000000000000000LS000029820000000002000F     
346 0020OPTIONS TR PKG   00000000000000000SS000032020000000042209F     
346 0020OPTIONS TR EMN   00000000000000000SS000055260000000050663F     
346 0020OPTIONS TR ETN   00000000000000000SS000044720000000011109F     
346 0020OPTIONS TR EXC   00000000000000000SS000036470000000014200F     
346 0020OPTIONS TR FMC   00000000000000000SS000054320000000067234F     
346 0020OPTIONS TR GEO   00000000000000000LS000026310000000013400F     
346 0020OPTIONS TR GNW   00000000000000000SS000005290000000002300F     
346 0020OPTIONS TR GRA   00000000000000000SS000057760000000006200F     
346 0020OPTIONS TR HTZ   00000000000000000LS000014180000000134290F     
346 0020OPTIONS TR       00000000000000000SS000014240000000006700F     
346 0020OPTIONS TR ILMN  00000000000000000LS000042080000000023206F     
346 0020OPTIONS TR IPG   00000000000000000SS000010640000000183200F     
346 0020OPTIONS TR       00000000000000000LS000041490000000050000F     
346 0020OPTIONS TR TAP   00000000000000000SS000044540000000178451F     
346 0020OPTIONS TR TSLA  00000000000000000LS000028520000000005900F     
346 0020OPTIONS TR VAL   00000000000000000SS000053340000000000700F     
346 0020R GUASTELL SRZ   00000000000000000LS000014380000000005000F     
346 0020R GUASTELLCSHAW  20130119000400000LO000004200000000000025F     
346 0020R GUASTELLCSHAW  20130119000450000SO000000500000000000025F     
346 0020R GUASTELL CBE   00000000000000000LS000073150000000007700F     
346 0020R GUASTELL AET   00000000000000000LS000038410000000002714F     
346 0020R GUASTELL VQ    00000000000000000LS000011180000000001500F     
346 0020R GUASTELL NXY   00000000000000000LS000025210000000016000F     
346 0020R GUASTELL PRX   00000000000000000LS000049800000000004000F     
346 0020R GUASTELL RDSB  00000000000000000LS000072190000000002500F     
346 0020R GUASTELL RDSA  00000000000000000SS000069970000000002500F     
346 0020R GUASTELL SHAW  00000000000000000LS000042080000000005095F     
346 0020R GUASTELL ARBA  00000000000000000LS000044690000000017500F     
346 0020R GUASTELL CAR   00000000000000000SS000016420000000001200F     
346 0020R GUASTELL CHG   00000000000000000SS000065160000000001781F     
346 0020R GUASTELL CBI   00000000000000000SS000036820000000000236F     
346 0020R GUASTELL CVH   00000000000000000SS000041630000000006984F     
346 0020R GUASTELL DTG   00000000000000000LS000087160000000010000F     
346 0020R GUASTELL ETN   00000000000000000SS000044720000000005965F     
346 0020R GUASTELL HTZ   00000000000000000LS000014180000000006000F     
346 0020R GUASTELL IBI   00000000000000000LS000025460000000001055F     
346 0020FACIL ACCT TEF   00000000000000000LS000012560000000000100F     
346 0020FACIL ACCT VISN  00000000000000000LS000000310000000000100F     
346 0020FACIL ACCT P     00000000000000000LS000011990000000000100F     
346 0020FACIL ACCT CBB   00000000000000000LS000004690000000000100F     
346 0020FACIL ACCT CSCO  00000000000000000SS000019080000000000025F     
346 0020FACIL ACCT EBAY  00000000000000000SS000047470000000000100F     
346 0020FACIL ACCT ORCT  00000000000000000LS000000225000000000031F     
346 0020FACIL ACCT GOOG  00000000000000000LS000685090000000000001F     
346 0020FACIL ACCT INVE  00000000000000000LS000000700000000004943F     
346 0020FACIL ACCT IDCC  00000000000000000LS000033750000000000100F     
346 0020FACIL ACCT MERU  00000000000000000SS000002960000000000100F     
346 0020PROP ACCT PCRUS  20121020000400000LO000002950000000000020F     
